:020000040000FA
:100000000C9463000C948B000C948B000C94E70907
:100010000C94E7090C94E7090C948B000C948B006A
:100020000C948B000C948B000C948B000C948B0024
:100030000C948B000C948B000C948B000C948B0014
:100040000C949D090C948B000C946B090C9445093D
:100050000C948B000C948B000C948B000C948B00F4
:100060000C945F0A0C948B00000000002400270011
:100070002A0000000008000201000003040700003D
:1000800000000000000000000000230026002900FE
:1000900000000000250028002B00040404040404D0
:1000A0000404020202020202030303030303010227
:1000B00004081020408001020408102001020408F6
:1000C0001020C30BA70F11241FBECFEFD8E0DEBF57
:1000D000CDBF12E0A0E0B1E0E6EEF3E202C0059091
:1000E0000D92A030B107D9F723E0A0E0B2E001C043
:1000F0001D92A13FB207E1F710E0C2E6D0E004C0D4
:100100002197FE010E94E011C136D107C9F70E9474
:10011000AC0C0C94E6110C94000080919F0290911D
:10012000A002891B990B089508950895AF92BF927C
:10013000CF92DF92EF92FF920F931F93CF93DF93B3
:100140006C017B018B01040F151FEB015E01AE18E2
:10015000BF08C017D10759F06991D601ED91FC9104
:100160000190F081E02DC6010995892B79F7C50131
:10017000DF91CF911F910F91FF90EF90DF90CF9083
:10018000BF90AF900895FC01538D448D252F30E032
:10019000842F90E0821B930B541710F0CF96089594
:1001A00001970895FC01918D828D981761F0A28DC1
:1001B000AE0FBF2FB11D5D968C91928D9F5F9F7387
:1001C000928F90E008958FEF9FEF0895FC01918D3D
:1001D000828D981731F0828DE80FF11D858D90E0AA
:1001E00008958FEF9FEF0895FC01918D228D892F47
:1001F00090E0805C9F4F821B91098F73992708952F
:1002000081E193E00E94F40021E0892B09F420E0D1
:10021000822F089580E090E0892B29F00E94000150
:1002200081110C9400000895FC01A48DA80FB92F32
:10023000B11DA35ABF4F2C91848D90E001968F730E
:100240009927848FA689B7892C93A089B1898C912D
:10025000837080648C93938D848D981306C002887C
:10026000F389E02D80818F7D80830895EF92FF9246
:100270000F931F93CF93DF93EC0181E0888F9B8DC9
:100280008C8D98131AC0E889F989808185FF15C083
:100290009FB7F894EE89FF896083E889F9898081A6
:1002A0008370806480839FBF81E090E0DF91CF9175
:1002B0001F910F91FF90EF900895F62E0B8D10E097
:1002C0000F5F1F4F0F731127E02E8C8D8E110CC006
:1002D0000FB607FCFACFE889F989808185FFF5CF51
:1002E000CE010E941401F1CFEB8DEC0FFD2FF11D1B
:1002F000E35AFF4FF0829FB7F8940B8FEA89FB898E
:1003000080818062CFCFCF93DF93EC01888D8823EB
:10031000B9F0AA89BB89E889F9898C9185FD03C068
:10032000808186FD0DC00FB607FCF7CF8C9185FF4D
:10033000F2CF808185FFEDCFCE010E941401E9CF7D
:10034000DF91CF91089590E0FC01EE58FF4F24918A
:10035000FC01E255FF4F3491FC01E656FF4FE4915A
:10036000EE23C9F0222339F0233001F1A8F4213023
:1003700019F1223029F1F0E0EE0FFF1FE057FF4F97
:10038000A591B4918FB7F894EC91611126C0309586
:100390003E233C938FBF08952730A9F02830C9F041
:1003A000243049F7809180008F7D03C080918000C8
:1003B0008F7780938000DFCF84B58F7784BDDBCFCC
:1003C00084B58F7DFBCF8091B0008F778093B00094
:1003D000D2CF8091B0008F7DF9CF3E2BDACFCF9373
:1003E000DF9390E0FC01E255FF4F249186569F4F2A
:1003F000FC0184918823D1F090E0880F991FFC01C3
:10040000E859FF4FA591B491FC01E057FF4FC5910A
:10041000D49161110EC09FB7F8948C91E22FE095B2
:100420008E238C932881E223E8839FBFDF91CF91B5
:1004300008958FB7F894EC91E22BEC938FBFF6CF31
:100440003FB7F8948091890290918A02A0918B0223
:10045000B0918C0226B5A89B05C02F3F19F00196DC
:10046000A11DB11D3FBFBA2FA92F982F8827BC010E
:10047000CD01620F711D811D911D42E0660F771F36
:10048000881F991F4A95D1F708958F929F92AF9236
:10049000BF92CF92DF92EF92FF924B015C010E94DC
:1004A00020026B017C010E9420026C197D098E09DB
:1004B0009F09683E734081059105A8F321E0821AE7
:1004C0009108A108B10888EEC80E83E0D81EE11C8F
:1004D000F11C81149104A104B10429F7FF90EF905D
:1004E000DF90CF90BF90AF909F908F900895209114
:1004F0008F02309190022817390771F490918D0284
:1005000080918E02981741F0E0918D02F0E0EC5B53
:10051000FD4F808190E008958FEF9FEF089508953B
:10052000EF92FF920F931F93CF93DF93DC015C96C2
:10053000ED90FC905D97E114F10479F481E090E096
:1005400013969C938E93129790E080E0DF91CF9169
:100550001F910F91FF90EF9008955196ED91FC91AE
:10056000529750968C915097982F90950FB75E9612
:100570002C915E97122F127021FD6095F8942081C6
:10058000112319F1282B2083E7012197F1F728E0A7
:10059000462F50E0308160FF1AC0382B3083E701CE
:1005A0002197F1F7BA0175956795215089F71123C5
:1005B00081F08081892380830FBF5C968D919C910F
:1005C0000197F1F781E090E0C1CF2923DCCF3923F7
:1005D000E5CF9081892BEFCF20918F02309190024F
:1005E0002817390771F480918E0220918D0290E0D6
:1005F000805C9F4F821B910960E470E00E94B11102
:10060000089590E080E0089520918F02309190024B
:1006100028173907B9F490918D0280918E029817AE
:1006200089F0E0918D02F0E0EC5BFD4F808120913C
:100630008D0230E02F5F3F4F2F73332720938D02C1
:1006400090E008958FEF9FEF089508952091210283
:10065000260F3327331F21323105ECF42091E702B6
:10066000FC0190E080E0243069F082E00895A091E0
:1006700021022191AC014F5F5D4FA40FB52FB11D39
:100680002C930196861798F380912102680F60934E
:10069000210280E0089581E008951092E70281E050
:1006A0008093E6021092C10261E082E10E94A30100
:1006B00061E083E10E94A301E9EBF0E080818E7F9D
:1006C000808380818D7F808388E48093B80085E477
:1006D0008093BC000895CF93DF9391E09093000244
:1006E0008823B9F0C091B800D091BA008091BC00C5
:1006F0008A7B8093BC0060E082E10E94A30160E0FD
:1007000083E10E94A3010E944D03D093BA00C093DD
:10071000B800DF91CF9108958F929F92AF92BF92D0
:10072000CF92DF92EF92FF920F931F93CF93DF93BD
:10073000D0911003D13208F0D7C0182FC0910F0309
:100740000E9420026B017C018091E70281116BC045
:1007500082E08093E7021093E6028FEF8093E50238
:100760001092E402D093E302AFEEB2E0E3ECF2E0E9
:1007700080E0D81391C01092C2028091C202CC0FC7
:10078000C82BC093C2028091C102813009F088C099
:100790001092C1020E9420026B017C018091C20272
:1007A0008093BB008091E9029091EA02A091EB0254
:1007B000B091EC02892B8A2B8B2BA1F00E94200296
:1007C0000091E9021091EA022091EB023091EC02D3
:1007D0006C197D098E099F09061717072807390725
:1007E00008F442C08091BC0083FDD8CF85EC809393
:1007F000BC000E9420026B017C018091E7028230E4
:1008000009F450C08091E5028F3F09F46FC08091D8
:10081000E502803209F46CC08091E502803309F46E
:1008200069C084E026C08091E9029091EA02A0911B
:10083000EB02B091EC02892B8A2B8B2B09F484CF2D
:100840000E9420028090E9029090EA02A090EB02C0
:10085000B090EC026C197D098E099F0986169706E7
:10086000A806B90608F070CF8091E8020E946B03D9
:1008700085E01092EE02109210031092ED02DF91CB
:10088000CF911F910F91FF90EF90DF90CF90BF908D
:10089000AF909F908F9008959D9191938F5F69CFB6
:1008A00085EEA5CF8091E9029091EA02A091EB023A
:1008B000B091EC02892B8A2B8B2B09F49ECF0E94DE
:1008C00020020091E9021091EA022091EB0230919E
:1008D000EC026C197D098E099F0906171707280776
:1008E000390708F08ACFC0CF81E0C3CF80E0C1CF05
:1008F00082E0BFCF83E0BDCFE091A00280919F0254
:10090000E81730F4F0E0EF55FD4F808190E0089556
:100910008FEF9FEF08959091A00280919F022FEF9B
:100920003FEF981748F4E92FF0E0EF55FD4F208195
:1009300030E09F5F9093A002C9010895CF92DF92AB
:10094000EF92FF920F931F93CF93DF937C01CB0124
:100950008A012091ED02222389F0EB016B01C40E84
:10096000D51ECC15DD0569F06991D701ED91FC919B
:100970000190F081E02DC7010995F3CF642F0E940B
:100980002603C801DF91CF911F910F91FF90EF9047
:10099000DF90CF900895CF93DF931F92CDB7DEB74E
:1009A00069832091ED022223F9F020911003203277
:1009B00058F021E030E0FC013383228390E080E0B6
:1009C0000F90DF91CF9108958091EE02E82FF0E033
:1009D000E151FD4F998190838F5F8093EE02809368
:1009E000100381E090E0ECCF61E0CE0101960E941F
:1009F0002603F7CF81E08093ED0280E480930F031C
:100A00001092EE02109210036EEF8EEA93E00E94B5
:100A1000CB0481E00E948C036FE070E080E090E006
:100A20000C94450290E080E00895CF92DF92EF921F
:100A3000FF920F931F93CF93DF93CEE1833F09F48F
:100A4000C5E591E09093ED0290E490930F0310922E
:100A5000EE0210921003682F8EEA93E00E94CB04FE
:100A600081E00E948C036C2F70E090E080E00E9497
:100A700045020E9420026B017C018091E7028111F6
:100A800065C081E08093E7028093E6029FEF909338
:100A9000E5021092E40292E09093E3028093C20296
:100AA0008091C20280688093C2028091C10281302D
:100AB00009F084C01092C1020E9420026B017C01E7
:100AC0008091C2028093BB008091E9029091EA027A
:100AD000A091EB02B091EC02892B8A2B8B2BA1F019
:100AE0000E9420020091E9021091EA022091EB029B
:100AF0003091EC026C197D098E099F0906171707C2
:100B00002807390708F443C08091BC0083FDD8CF83
:100B100085EC8093BC000E9420026B017C018091D7
:100B2000E702813009F44CC08091E402C3E08330D5
:100B300010F4C091E402A3ECB2E0E1EAF2E080E05C
:100B40008C1751F19D9191938F5FFACF8091E902BB
:100B50009091EA02A091EB02B091EC02892B8A2BD2
:100B60008B2B09F48ACF0E9420020091E902109198
:100B7000EA022091EB023091EC026C197D098E099A
:100B80009F09061717072807390708F076CF8091C5
:100B9000E8020E946B03C0E01092A002C0939F0283
:100BA000DBE0C33078F56AE070E080E090E00E941E
:100BB0004502D150B1F790E080E04AC085EEA9CF60
:100BC0008091E9029091EA02A091EB02B091EC02CF
:100BD000892B8A2B8B2B09F4A2CF0E942002009133
:100BE000E9021091EA022091EB023091EC026C19BB
:100BF0007D098E099F09061717072807390708F08E
:100C00008ECFC5CF8EEA93E00E948B04182FC82F99
:100C10008EEA93E00E948B04D82F8EEA93E00E9424
:100C20008B0498E021E33C2FCC0F37FD1AC0915084
:100C3000D1F7CD2798E021E33C2FCC0F37FD13C02F
:100C40009150D1F7C81311C080E0912F8D0F911DE5
:100C5000DF91CF911F910F91FF90EF90DF90CF9098
:100C60000895C227E4CFC227EBCF0E94FA0481E0A7
:100C700090E0EECFCF93DF93EC0160E08E810E9495
:100C8000A30161E08E810E94A30160E08E810E9439
:100C9000A3018BE891E00197F1F7DF91CF910895DF
:100CA000CF92DF92EF92FF920F931F93CF93DF9338
:100CB0006C017C0187E0E80EF11CD0E0C0E0062F5B
:100CC00010E0B8010C2E02C0759567950A94E2F702
:100CD0006170F70181917F010E94A3012196C430C8
:100CE000D10579F7C601DF91CF911F910F91FF9048
:100CF000EF90DF90CF900C943A06CF92DF92EF9274
:100D0000FF920F931F93CF93DF93EC01F62E642F86
:100D10008C810E94A3018D818F3F19F060E00E94B9
:100D2000A3010F2D10E08F8584FF25C06E0187E0A1
:100D3000C80ED11CF12CE12CB8010E2C02C0759507
:100D400067950A94E2F76170F60181916F010E9444
:100D5000A301FFEFEF1AFF0A88E0E816F10461F73C
:100D6000CE01DF91CF911F910F91FF90EF90DF9017
:100D7000CF900C943A06B80184E0759567958A95F2
:100D8000E1F7CE010E9450066F2DCE01DF91CF9189
:100D90001F910F91FF90EF90DF90CF900C94500631
:100DA00040E0682F8AEB93E00C947D0681E00E947E
:100DB000D0068BE39FE10197F1F70895CF93DF937E
:100DC000613029F09091C90398609093C9036093B2
:100DD000CD031092CE0390E49093CF038093D00381
:100DE000805C8093D10361E08091BE030E94EF019B
:100DF0008091BF038F3F19F061E00E94EF0161E035
:100E00008091C0030E94EF01CAEBD3E09E012A5BF0
:100E100033408091C90384FD0BC084E090E02196AB
:100E20002817390744F461E08E810E94EF01EECF6C
:100E300088E090E0F4CF8BE39DE00197F1F760E06C
:100E40008091BE030E94A30160E08091C0030E94D4
:100E5000A3018091BF038F3F19F060E00E94A301BE
:100E60008091C90384FD34C063E08AEB93E00E9463
:100E70005006CBE4D6E4CE010197F1F763E08AEBAC
:100E800093E00E9450062197F1F763E08AEB93E02C
:100E90000E94500683E592E00197F1F762E08AEB49
:100EA00093E00E9450068091C90380620E94D006A0
:100EB00084E08093CA038CE00E94D0060E94D6068C
:100EC00082E08093CB0386E0DF91CF910C94D00633
:100ED00080620E94D0068BE496E40197F1F780913E
:100EE000C90380620E94D00683E592E00197F1F782
:100EF0008091C90380620E94D006D5CF9091CD0326
:100F0000891710F08FEF890FE82FF0E0E654FC4FBF
:100F1000848980680C94D00641E00E947D0681E0BF
:100F200090E00895FB0101900020E9F73197AF01AF
:100F3000461B570BDC01ED91FC910280F381E02D03
:100F400009948F929F92AF92BF92EF92FF920F936C
:100F50001F93CF93DF93CDB7DEB7A1970FB6F89469
:100F6000DEBF0FBECDBF7C01FA01CB0119A222303A
:100F700008F42AE08E010F5D1F4F822E912CB12CB8
:100F8000A12CBF01A50194010E94E20FF901CA0141
:100F90006A300CF5605DD8016E938D01232B242BF4
:100FA000252B79F790E080E0109721F0BD01C70173
:100FB0000E949207A1960FB6F894DEBF0FBECDBF78
:100FC000DF91CF911F910F91FF90EF90BF90AF9065
:100FD0009F908F900895695CDECFCF92DF92EF9261
:100FE000FF920F931F93CF93DF93EC016A017B0174
:100FF000E881F9810190F081E02D6DE209958C0185
:1010000044275527BA014C195D096E097F092AE06A
:10101000CE010E94A107800F911FDF91CF911F91F8
:101020000F91FF90EF90DF90CF900895AB01770F75
:10103000660B770B77FD0C94ED072AE00C94A10763
:10104000BC018AEB93E00C949207CF93DF93AC0141
:10105000990F660B770B77FF10C081E193E00E9438
:10106000ED07EC0162E471E081E193E00E949207F8
:101070008C0F9D1FDF91CF9108952AE081E193E0CD
:101080000E94A107EECFCF92DF92EF92FF9283EF03
:101090000E9415058C7FBC0190E080E00E94B61094
:1010A00022E538EB4FE25BE30E94441126E636E688
:1010B0004BE352E40E9413100E9480106B01709366
:1010C0009A02609399020E94FA0485EF0E94150526
:1010D0008C7FBC0190E080E00E94B61020E030E000
:1010E0004AEF5AE30E94441120E030E040EC50E423
:1010F0000E9413100E9480107093980260939702D0
:101100000E94FA04C6010E942508809197029091DE
:101110009802FF90EF90DF90CF900C9425080F93EA
:101120001F93CF93DF93EC010E9492078C0162E43E
:1011300071E0CE010E949207800F911FDF91CF9145
:101140001F910F91089581E08093950265E471E00D
:1011500082ED93E00E948F086FE471E082ED93E0EE
:101160000E948F0868E671E082ED93E00E948F088C
:1011700064E670E080E090E00C94450281E08093AA
:10118000960265E471E082ED93E00E948F086FE4BF
:1011900071E082ED93E00E948F0868E771E082EDD4
:1011A00093E00E948F0864E670E080E090E00C9489
:1011B00045021092950265E471E082ED93E00E9491
:1011C0008F086FE471E082ED93E00E948F0869E878
:1011D00071E082ED93E00E948F0864E670E080E0A9
:1011E00090E00C9445021092960265E471E082ED65
:1011F00093E00E948F086FE471E082ED93E00E941B
:101200008F086AE971E082ED93E00E948F0864E63E
:1012100070E080E090E00C94450285ED8093BC0086
:101220008091E9029091EA02A091EB02B091EC0268
:101230000796A11DB11D23E0B695A79597958795B3
:101240002A95D1F72091BC0024FD03C01092E7023B
:1012500008954091E9025091EA026091EB02709189
:10126000EC02452B462B472B69F30097A105B105EE
:1012700041F025E32A95F1F700000197A109B10992
:10128000E1CF8091E8020C946B031F920F920FB68E
:101290000F9211242F933F934F935F936F937F93FC
:1012A0008F939F93AF93BF93EF93FF9381E193E06D
:1012B0000E941401FF91EF91BF91AF919F918F9187
:1012C0007F916F915F914F913F912F910F900FBE42
:1012D0000F901F9018951F920F920FB60F92112426
:1012E0002F938F939F93EF93FF93E0912103F091BE
:1012F00022038081E0912703F091280382FD1BC027
:10130000908180912A038F5F8F7320912B03821726
:1013100041F0E0912A03F0E0EF5EFC4F958F80935F
:101320002A03FF91EF919F918F912F910F900FBE04
:101330000F901F9018958081F4CF1F920F920FB6D7
:101340000F9211242F933F938F939F93AF93BF934B
:101350008091850290918602A0918702B0918802C7
:101360003091840223E0230F2D3758F50196A11DFB
:10137000B11D209384028093850290938602A093EE
:101380008702B09388028091890290918A02A0918D
:101390008B02B0918C020196A11DB11D8093890230
:1013A00090938A02A0938B02B0938C02BF91AF916D
:1013B0009F918F913F912F910F900FBE0F901F9093
:1013C000189526E8230F0296A11DB11DD2CF1F92BA
:1013D0000F920FB60F9211242F933F934F935F9369
:1013E0006F937F938F939F93AF93BF93EF93FF93ED
:1013F000E0918F02F0919002309749F0A685B78571
:101400008585968D91FF14C09C918923A1F4FF914D
:10141000EF91BF91AF919F918F917F916F915F916C
:101420004F913F912F910F900FBE0F901F901895E5
:101430009C91892361F7A389B4899C9185898095C2
:1014400089238C93868997890197F1F7608D718D37
:10145000A685B785558538E020E0CB010197F1F7E7
:10146000822F90E095958795282F4C91452309F080
:101470002068315091F7868D81FD209580918E02F4
:1014800090E001968F73992730918D02381799F06B
:10149000A0918E02B0E0AC5BBD4F2C9380938E0286
:1014A000828D938D0197F1F7A389B4898C919589E9
:1014B000892B8C93ACCF868D8160868FF1CF1F9264
:1014C0000F920FB60F9211242F933F934F935F9378
:1014D0006F937F938F939F93AF93BF93EF93FF93FC
:1014E0008091B900887F803609F44AC0F0F58832CF
:1014F00009F4A7C018F5803109F49BC0B8F488231B
:1015000009F4F9C0883009F494C0FF91EF91BF91BC
:10151000AF919F918F917F916F915F914F913F918B
:101520002F910F900FBE0F901F901895883109F4DE
:1015300088C0803251F78093E50214C0803409F4EA
:101540009DC040F48033B9F38833F9F68093E50207
:1015500085ECB0C0803509F485C0883509F496C0A3
:10156000883499F60E940D09D0CF883909F48CC0CF
:1015700038F5883729F050F4883611F0803729F68D
:1015800083E08093E7021092430257C0883809F441
:101590007BC0803919F0803809F0B7CF80914302C1
:1015A000803208F071C0E091430281E08E0F809399
:1015B00043028091BB00F0E0ED5DFD4F80833DC0B4
:1015C000803B39F0E0F4803A09F479C0883A09F0B8
:1015D0009CCF84E08093E7021092220210922102B5
:1015E000E0919302F091940209958091210281117A
:1015F0000FC081E0809321021092010209C0803C5B
:1016000009F4A6CF883C09F4A3CF883B09F07DCF2D
:10161000E091220281E08E0F80932202F0E0EF5FE2
:10162000FD4F80818093BB00909122028091210226
:1016300029C08091C2028093BB0085EC8093BC00DE
:1016400064CF9091E4028091E302981758F5E091FD
:10165000E40281E08E0F8093E402F0E0ED53FD4F51
:101660008081E9CFE091E40281E08E0F8093E40273
:101670008091BB00F0E0ED53FD4F80839091E40238
:101680008091E3029817C8F285E8D8CFE091E40290
:1016900081E08E0F8093E4028091BB00F0E0ED5377
:1016A000FD4F80838091E60281115CCF81E08093C1
:1016B000C10284EA8093BC001092E70226CF85EC39
:1016C0008093BC001092E70280914302803230F494
:1016D000E0914302F0E0ED5DFD4F10826091430226
:1016E00070E0E0919102F091920283E292E009951C
:1016F000109243020ACF1092E50234CFCF92DF92CC
:10170000EF92FF920F931F93E82FF92F05C001501E
:1017100011092109310961F1908196239417B9F3D8
:1017200005C0015011092109310911F19081962359
:101730009413F7CFC12CD12CE12CF12C0AC08FEFE0
:10174000C81AD80AE80AF80A0C151D052E053F0527
:1017500079F080818623841791F36C2D7D2D8E2D59
:101760009F2D1F910F91FF90EF90DF90CF900895E4
:1017700060E070E080E090E01F910F91FF90EF90AB
:10178000DF90CF900895109214031092130388EE07
:1017900093E0A0E0B0E08093150390931603A0932C
:1017A0001703B093180324E031E030931203209321
:1017B000110325EC30E030931E0320931D0324EC2D
:1017C00030E03093200320931F0320EC30E030936F
:1017D00022032093210321EC30E030932403209353
:1017E000230322EC30E0309326032093250326ECDC
:1017F00030E0309328032093270310922A0310929D
:101800002B0310922C0310922D031092B10310920F
:10181000B0038093B2039093B303A093B403B09347
:10182000B50326E131E03093AF032093AE0310926D
:10183000D5031092D4038093D6039093D703A0933B
:10184000D803B093D90384E391E09093D3038093BA
:10185000D2031092E9031092E8031092EB03109266
:10186000EA031092ED031092EC031092EF03109232
:10187000EE036091F0036E7F6D7F6093F0036695D9
:10188000617081E0682783E00E94A30161E083E04A
:101890000E94EF01E1EBF0E0E491E093E203EDE977
:1018A000F0E0E491F0E0EE0FFF1FE057FF4F85916D
:1018B00094919093E4038093E30360E082E00E94BC
:1018C000EF018091F00381FD04C061E082E00E949D
:1018D000A30182E08093DE03E0EBF0E0E491E0938B
:1018E000DF03ECE9F0E0E491F0E0EE0FFF1FEA57D0
:1018F000FF4F859194919093E1038093E0031092C0
:10190000BD031092BC0388E291E09093BB038093E7
:10191000BA038CE08093BE038FEF8093BF038BE00C
:101920008093C00388E08093C10387E08093C20363
:1019300086E08093C30385E08093C4031092C503BF
:101940001092C6031092C7031092C8031092C903E5
:1019500061E080E10C94DE06789484B5826084BDF9
:1019600084B5816084BD85B5826085BD85B58160A3
:1019700085BD80916E00816080936E001092810021
:1019800080918100826080938100809181008160DC
:10199000809381008091800081608093800080919D
:1019A000B10084608093B1008091B0008160809329
:1019B000B00080917A00846080937A0080917A00F0
:1019C000826080937A0080917A00816080937A00AF
:1019D00080917A00806880937A001092C10064E060
:1019E00084E10E94DE061092ED031092EC03109247
:1019F000EB031092EA031092E9031092E8038DE9D9
:101A000091E09093EF038093EE039091DE03963183
:101A100008F047C02DEB30E03093E9032093E80352
:101A20002BE931E03093EB032093EA032CE231E021
:101A30003093ED032093EC032091680084E098300C
:101A400048F031E09E3008F430E081E001C0880FBA
:101A50003A95EAF7822B809368002DE630E09830C3
:101A600050F02BE630E09E3030F02CE630E096313E
:101A700010F030E020E03093E6032093E503292FB7
:101A800030E0983008F0DEC181E001C0880F9A95FF
:101A9000EAF78093E7038091EE039091EF030197BB
:101AA000F1F78091EC039091ED03892B49F1E091DE
:101AB0008F02F091900283E0E23DF80709F1309740
:101AC00039F0A389B4899C918589809589238C9369
:101AD0008091F0038E7F8093F00310928E0210921B
:101AE0008D0282ED93E09093900280938F02E091BB
:101AF000E503F091E60380819091E703892B8083D1
:101B0000E0912103F091220382E08083E0911D03A4
:101B1000F0911E031082E0911F03F09120038FECDF
:101B2000808310922903E0912503F091260386E03B
:101B30008083E0912303F09124038081806180837E
:101B4000E0912303F0912403808188608083E091F9
:101B50002303F0912403808180688083E091230334
:101B6000F091240380818F7D808360E089E00E9472
:101B7000EF0160E08EE00E94EF0161E08AE00E94E8
:101B8000EF0160E08AE00E94A30161E08DE00E9425
:101B9000EF0161E084E00E94EF0160E08DE00E94CF
:101BA000A30160E084E00E94A30181E00E947E071F
:101BB0008FEA91E00E94200882E00E947E0780EC7C
:101BC00091E00E94200883E00E947E0787EC91E06C
:101BD0000E9420081092A00210929F021092EE0222
:101BE000109210030E944D0384E990E090939402B8
:101BF0008093930285E990E0909392028093910202
:101C000064E670E080E090E00E9445020E94D60603
:101C1000C3E0D0E093E2E92EF12C27EB222E20E066
:101C2000322E33EA832E30E0932E44E6C42ED12C9C
:101C300044244A9453E0552E612C712C60E0A62E6A
:101C400060E0B62E60E08AE00E94A301CE01019719
:101C5000F1F761E08AE00E94A301C7010197F1F763
:101C600060E08AE00E94A301F1016491F401849193
:101C7000E82FF0E0EE0FFF1FEA57FF4F8591949198
:101C800000E412E42FE030E0462F0E947E0B611545
:101C900071058105910529F06F5F7F4F8F4F9F4F31
:101CA0009F700E94B81026E933E44BE85CE30E9481
:101CB00044110E948010DB0124E630E00E94C5112F
:101CC000A30192010E94C30FC601821B930B909344
:101CD0009E0280939D02F0E4F0937C0080917A0054
:101CE000806480937A0080917A0086FDFCCFA09179
:101CF000780080917900B82F24E630E00E94C51169
:101D0000A30192010E94C30FC90130939C0220934A
:101D10009B0220919D0230919E02223431050CF4E9
:101D20009EC0823391050CF0D2C060E084E00E9436
:101D3000A30161E08DE00E94A3010E94430880910D
:101D40009D0290919E020E9425086BEA71E081E15C
:101D500093E00E948F088091950281110E94D9081A
:101D600080919B0290919C020E94250865E771E09A
:101D700081E193E00E948F0880919602811102C058
:101D80000E94BE080E94D60680E00E947E078FEC6B
:101D900091E00E94200860919D0270919E028AEB62
:101DA00093E00E9416088DED91E00E94200881E0EA
:101DB0000E947E078FED91E00E94200860919B02B7
:101DC00070919C028AEB93E00E9416088DED91E0E1
:101DD0000E94200882E00E947E078DEE91E00E9422
:101DE00020086091990270919A028AEB93E00E9418
:101DF000160885EF91E00E94200883E00E947E078C
:101E000087EF91E00E9420086091970270919802FC
:101E10008AEB93E00E9416088DED91E00E94200865
:101E200062E370E080E090E00E944502A114B104FA
:101E300009F408CF0E940001882309F403CF0E940F
:101E4000000000CF9E3040F42850310981E001C0ED
:101E5000880F2A95EAF71DCE2E503109F7CF21348D
:101E6000310509F48FCF833391050CF450C061E044
:101E700084E00E94A30160E08DE00E94A3010E9423
:101E8000430880919D0290919E020E94250865E77B
:101E900071E081E193E00E948F08809195028111A9
:101EA00002C00E94A30880919B0290919C020E9414
:101EB00025086BEA71E081E193E00E948F08809130
:101EC0009602882309F45ECF0E94F3085BCFC29785
:101ED00009F458CF60E084E00E94A30160E08DE047
:101EE0000E94A3010E94430880919D0290919E024E
:101EF0000E9425086BEA71E081E193E00E948F085F
:101F000080919502882379F20E94D908CCCFC2979C
:101F100009F438CF61E084E00E94A30161E08DE024
:101F20000E94A3010E94430880919D0290919E020D
:101F30000E94250865E771E081E193E00E948F0827
:101F40008091950281110CCF0E94A30809CF84E3F0
:101F500091E09093D3038093D20380918F0290916C
:101F60009002825D934071F4E091E503F091E60305
:101F700090818091E703809589238083109290025D
:101F800010928F020895052E97FB1EF400940E9474
:101F9000DA0F57FD07D00E94E20F07FC03D04EF482
:101FA0000C94DA0F50954095309521953F4F4F4F47
:101FB0005F4F089590958095709561957F4F8F4FF5
:101FC0009F4F0895A1E21A2EAA1BBB1BFD010DC055
:101FD000AA1FBB1FEE1FFF1FA217B307E407F507D9
:101FE00020F0A21BB30BE40BF50B661F771F881FB5
:101FF000991F1A9469F760957095809590959B014B
:10200000AC01BD01CF010895A29FB001B39FC001F3
:10201000A39F700D811D1124911DB29F700D811D14
:102020001124911D08955058BB27AA270E942B10F8
:102030000C940A110E94FC1038F00E94031120F049
:1020400039F49F3F19F426F40C94F9100EF4E0953E
:10205000E7FB0C94F310E92F0E941B1158F3BA17F9
:10206000620773078407950720F079F4A6F50C94AE
:102070003D110EF4E0950B2EBA2FA02D0B01B901E6
:1020800090010C01CA01A0011124FF27591B99F0EE
:10209000593F50F4503E68F11A16F040A22F232FFA
:1020A000342F4427585FF3CF469537952795A7954A
:1020B000F0405395C9F77EF41F16BA0B620B730BF1
:1020C000840BBAF09150A1F0FF0FBB1F661F771F62
:1020D000881FC2F70EC0BA0F621F731F841F48F417
:1020E000879577956795B795F7959E3F08F0B0CFA0
:1020F0009395880F08F09927EE0F97958795089587
:102100000E9487106894B1110C943E1108950E94AA
:10211000231188F09F5798F0B92F9927B751B0F045
:10212000E1F0660F771F881F991F1AF0BA95C9F75B
:1021300014C0B13091F00E943D11B1E008950C94AB
:102140003D11672F782F8827B85F39F0B93FCCF35E
:10215000869577956795B395D9F73EF490958095D8
:10216000709561957F4F8F4F9F4F0895E89409C0F8
:1021700097FB3EF490958095709561957F4F8F4FBA
:102180009F4F9923A9F0F92F96E9BB279395F695D0
:10219000879577956795B795F111F8CFFAF4BB0F4E
:1021A00011F460FF1BC06F5F7F4F8F4F9F4F16C0B2
:1021B000882311F096E911C0772321F09EE8872F3C
:1021C000762F05C0662371F096E8862F70E060E0F8
:1021D0002AF09A95660F771F881FDAF7880F969571
:1021E000879597F9089597F99F6780E870E060E018
:1021F00008959FEF80EC089500240A9416161706A0
:1022000018060906089500240A94121613061406E7
:1022100005060895092E0394000C11F4882352F04A
:10222000BB0F40F4BF2B11F460FF04C06F5F7F4F02
:102230008F4F9F4F089557FD9058440F551F59F0E9
:102240005F3F71F04795880F97FB991F61F09F3FA3
:1022500079F087950895121613061406551FF2CFCC
:102260004695F1DF08C0161617061806991FF1CF1C
:1022700086957105610508940895E894BB27662743
:102280007727CB0197F908950E9457110C940A11F2
:102290000E94FC1038F00E94031120F0952311F0E9
:1022A0000C94F3100C94F91011240C943E110E941C
:1022B0001B1170F3959FC1F3950F50E0551F629F5E
:1022C000F001729FBB27F00DB11D639FAA27F00D8F
:1022D000B11DAA1F649F6627B00DA11D661F829FB6
:1022E0002227B00DA11D621F739FB00DA11D621F9B
:1022F000839FA00D611D221F749F3327A00D611DB8
:10230000231F849F600D211D822F762F6A2F112499
:102310009F5750409AF0F1F088234AF0EE0FFF1FCC
:10232000BB1F661F771F881F91505040A9F79E3F23
:10233000510580F00C94F3100C943E115F3FE4F3D0
:10234000983ED4F3869577956795B795F795E79579
:102350009F5FC1F7FE2B880F911D9695879597F982
:10236000089597FB072E16F4009407D077FD09D047
:102370000E94CC1107FC05D03EF4909581959F4FAB
:102380000895709561957F4F08950E940410B7FFDE
:102390000895821B930B0895AA1BBB1B51E107C034
:1023A000AA1FBB1FA617B70710F0A61BB70B881FE5
:1023B000991F5A95A9F780959095BC01CD01089574
:1023C000EE0FFF1F0590F491E02D099410E0C2E696
:1023D000D0E004C0FE010E94E0112196C336D1076F
:1023E000C9F7F894FFCF0000000036019600C30043
:1023F0008301F400D200E60000000000CB049E043C
:1024000012058F028D008B047C04000000008C07F5
:1024100096001205250300000000900296001205A8
:102420008F02EC02040377020D0A0041542B434D46
:1024300047463D310041542B434D47533D222B38F5
:102440003830313233343536373839302200544160
:102450004E4B2050554D50204953204F4E00574170
:102460005445522050554D50204953204F4E005452
:10247000414E4B2050554D50204953204F46460069
:102480005741544552494E472050554D50204953CD
:10249000204F464600534D4152542049525249471D
:1024A0004154494F4E004353453336300047524F55
:1024B000555020310054414E4B204C4556454C3D23
:1024C00020200025004D4F495354204C4556454C83
:1024D0003D200054454D503D202000430048554DBF
:0624E00049443D202000EC
:107E0000112484B714BE81FFF0D085E080938100F7
:107E100082E08093C00088E18093C10086E0809377
:107E2000C20080E18093C4008EE0C9D0259A86E02C
:107E300020E33CEF91E0309385002093840096BBD3
:107E4000B09BFECF1D9AA8958150A9F7CC24DD24C4
:107E500088248394B5E0AB2EA1E19A2EF3E0BF2EE7
:107E6000A2D0813461F49FD0082FAFD0023811F036
:107E7000013811F484E001C083E08DD089C08234E0
:107E800011F484E103C0853419F485E0A6D080C0E4
:107E9000853579F488D0E82EFF2485D0082F10E0AE
:107EA000102F00270E291F29000F111F8ED06801E7
:107EB0006FC0863521F484E090D080E0DECF843638
:107EC00009F040C070D06FD0082F6DD080E0C81688
:107ED00080E7D80618F4F601B7BEE895C0E0D1E017
:107EE00062D089930C17E1F7F0E0CF16F0E7DF06D8
:107EF00018F0F601B7BEE89568D007B600FCFDCFD4
:107F0000A601A0E0B1E02C9130E011968C91119780
:107F100090E0982F8827822B932B1296FA010C0160
:107F200087BEE89511244E5F5F4FF1E0A038BF0790
:107F300051F7F601A7BEE89507B600FCFDCF97BE46
:107F4000E89526C08437B1F42ED02DD0F82E2BD052
:107F50003CD0F601EF2C8F010F5F1F4F84911BD097
:107F6000EA94F801C1F70894C11CD11CFA94CF0C13
:107F7000D11C0EC0853739F428D08EE10CD085E9AC
:107F80000AD08FE07ACF813511F488E018D01DD067
:107F900080E101D065CF982F8091C00085FFFCCF94
:107FA0009093C60008958091C00087FFFCCF809118
:107FB000C00084FD01C0A8958091C6000895E0E648
:107FC000F0E098E1908380830895EDDF803219F02E
:107FD00088E0F5DFFFCF84E1DECF1F93182FE3DFCA
:107FE0001150E9F7F2DF1F91089580E0E8DFEE27F6
:047FF000FF270994CA
:027FFE00040479
:00000001FF
